:020000040000FA
:040000007BEF1FF083
:10100000004F76657220566F6C74616765004F768D
:1010100065722043757272656E7400252E3266000B
:101020005465737400494E46004E414E00696E6629
:10103000006E616E0055693D006C6600493D0055CB
:101040003D0020410020560020570000000E000106
:101050007B6F000E7A6F36C08CF037C08DF038C0D1
:101060008EF039C08FF08FAF16D0000E7B6F010E5F
:101070007A6F8CC001F08DC002F08EC003F08FC07B
:1010800004F03CEC1FF001C08CF002C08DF003C0F6
:101090008EF004C08FF0000E0001936F000E926F6F
:1010A000E4C07FF0E5C080F07A517B11D8A402D073
:1010B000E8A513D07A517B11D8A404D0000E656F37
:1010C0002B0E03D0000E656F2D0E646F64C000F10F
:1010D000924B932B7F07D8A080078CC001F08DC066
:1010E00002F08EC003F08FC004F058EC18F0010439
:1010F0000210D8A44CD0BF0E3B6EFF0E3C6E3A508F
:101100003D6E3E6A3B503D263C503E223E5006E13D
:101110001A0E3D5CD8B002D0010E01D0000E0001C5
:10112000666F676B66516711D8B40DD0000E9225BB
:10113000016E010E9321026E250E036E100E046ED9
:10114000A3EC1DF00CD0000E9225016E010E932130
:10115000026E2D0E036E100E046EA3EC1DF0000146
:10116000FD0E7F27FF0E802334C011F035C012F032
:10117000000E136E010E146E7FC015F080C016F0C5
:1011800017EC1AF011C034F012C035F012008CC008
:1011900001F08DC002F08EC003F08FC004F058EC57
:1011A00018F001500210D8A435D0BF0E3B6EFF0ED0
:1011B0003C6E3A503D6E3E6A3B503D263C503E22CE
:1011C0003E5006E11A0E3D5CD8B002D0010E01D0AF
:1011D000000E0001686F696B68516911D8B40DD0B9
:1011E000000E9225016E010E9321026E290E036EF0
:1011F000100E046EA3EC1DF0B2D7000E9225016E06
:10120000010E9321026E310E036E100E046EA3ECDC
:101210001DF0A5D7000E0001946F000E956F800E93
:10122000966F3F0E976F000E916F000E906F8CC0FF
:1012300001F08DC002F08EC003F08FC004F0000EEC
:10124000056E000E066E000E076E000E086E64EC52
:101250001AF0D8A01ED076D094C00FF095C010F030
:1012600096C011F097C012F0000E136E000E146EAF
:10127000200E156E410E166EB6EC0EF00FC094F0F7
:1012800010C095F011C096F012C097F00001904B7D
:10129000912B8CC028F08DC029F08EC02AF08FC011
:1012A0002BF0000E136E000E146E200E156E410E04
:1012B000166E94C00FF095C010F096C011F097C054
:1012C00012F0B6EC0EF00FC02CF010C02DF011C0D3
:1012D0002EF012C02FF0F0EC17F0D8A01FD0BCD722
:1012E00094C001F095C002F096C003F097C004F0DE
:1012F000000E056E000E066E200E076E410E086E83
:101300007DEC13F001C094F002C095F003C096F09C
:1013100004C097F000019007D8A091078CC028F076
:101320008DC029F08EC02AF08FC02BF094C02CF015
:1013300095C02DF096C02EF097C02FF0F0EC17F06E
:10134000D8A0CED73AC007F0086A48EC1EF0075084
:101350000001816F81C07EF0670E8119D8A419D079
:10136000E651E711D8A404D0000EE76F010EE66F36
:10137000E7BF05D0E75108E1E605D8B005D0000E7B
:101380007D6F060E7C6F08D0E6C07CF0E7C07DF074
:1013900003D0E7AFF9D7F3D7670E8119D8A422D0CD
:1013A00091AF06D0FC0E905DFF0E9159D8A018D0D9
:1013B000FF0E3B6EFF0E3C6E7CC03DF07DC03EF0EC
:1013C0003B503D263C503E2290513D5C3E50800AB1
:1013D0003F6E9151800A3F58D8A002D0660E01D0CE
:1013E000650E7E6F7CC074F07DC075F0670E81194C
:1013F000D8A405D0660E7E19D8B491AF02D0744B34
:10140000752B660E7E19D8A416D091AF0CD0000EA5
:10141000946F000E956F800E966F3F0E976F000EC3
:10142000916F000E906F670E8119D8B404D090515F
:10143000742791517523000E8B6F000E8A6F8CC03C
:1014400082F08DC083F08EC084F08FC085F094C090
:1014500060F095C061F096C062F097C063F07BD0F9
:1014600082C001F083C002F084C003F085C004F0A4
:1014700094C005F095C006F096C007F097C008F03C
:101480007DEC13F001C01AF002C01BF003C01CF089
:1014900004C01DF0C1EC14F01AC086F01BC087F028
:1014A0001CC088F01DC089F086C028F087C029F0D4
:1014B00088C02AF089C02BF0BEEC18F028C078F064
:1014C00029C079F082C028F083C029F084C02AF0B6
:1014D00085C02BF094C013F095C014F096C015F0A1
:1014E00097C016F086C00FF087C010F088C011F0CA
:1014F00089C012F0B6EC0EF00FC02CF010C02DF029
:1015000011C02EF012C02FF092EC1EF028C082F015
:1015100029C083F02AC084F02BC085F094C001F06C
:1015200095C002F096C003F097C004F0000E056E5F
:10153000000E066E200E076E410E086E7DEC13F055
:1015400001C094F002C095F003C096F004C097F07B
:1015500000018A4B8B2B74518A5D8B51800A3B6E44
:101560007551800A3B58D8A07BD794C00FF095C026
:1015700010F096C011F097C012F0000E136E000E1E
:10158000146EA00E156E400E166EB6EC0EF00FC067
:1015900086F010C087F011C088F012C089F082C0B8
:1015A00028F083C029F084C02AF085C02BF086C0C3
:1015B0002CF087C02DF088C02EF089C02FF0F0EC01
:1015C00017F0D8B003D0000E000118D082C001F08F
:1015D00083C002F084C003F085C004F086C005F02B
:1015E00087C006F088C007F089C008F064EC1AF0E4
:1015F000D8A00BD0000178B108D0000E866F000E85
:10160000876F000E886F000E896F8CC001F08DC04F
:1016100002F08EC003F08FC004F086C005F087C0D2
:1016200006F088C007F089C008F0F7EC11F001C09F
:1016300082F002C083F003C084F004C085F060C073
:1016400094F061C095F062C096F063C097F0650EAB
:1016500000017E19D8B405D090C076F091C077F023
:1016600004D0000E776F000E766F000E736F000EC1
:10167000726F000E716F000E706F000E8B6F000E98
:101680008A6FC6D082C001F083C002F084C003F02C
:1016900085C004F094C005F095C006F096C007F030
:1016A00097C008F07DEC13F001C01AF002C01BF0E7
:1016B00003C01CF004C01DF0C1EC14F01AC086F089
:1016C0001BC087F01CC088F01DC089F086C028F0C0
:1016D00087C029F088C02AF089C02BF0BEEC18F032
:1016E00028C078F029C079F00001E8B90CD0785111
:1016F0007911D8A408D0670E8119D8B477AF03D078
:10170000704B712B39D072517311D8B477AF22D08E
:10171000000E9225D96E010E9321DA6E2E0EDF6E29
:10172000924B932B7F07D8A08007000E736F010E9A
:10173000726F10D0000E9225D96E010E9321DA6ED1
:10174000300EDF6E924B932B7F07D8A08007700777
:10175000D8A0710770517111D8A4ECD7000E922552
:10176000D96E010E9321DA6E7851300FDF6E924BF5
:10177000932B7F07D8A0800782C028F083C029F070
:1017800084C02AF085C02BF094C013F095C014F0EB
:1017900096C015F097C016F086C00FF087C010F005
:1017A00088C011F089C012F0B6EC0EF00FC02CF01A
:1017B00010C02DF011C02EF012C02FF092EC1EF0D0
:1017C00028C082F029C083F02AC084F02BC085F0A5
:1017D00094C001F095C002F096C003F097C004F0E9
:1017E000000E056E000E066E200E076E410E086E8E
:1017F0007DEC13F001C094F002C095F003C096F0A8
:1018000004C097F000017607D8A077078A4B8B2B8E
:1018100074518A5D8B51800A3B6E7551800A3B582A
:10182000D8B008D093BF2ED7935104E14B0E925DF0
:10183000D8A028D772517311D8B4E8A90AD0000EE5
:101840009225D96E010E9321DA6E2E0EDF6E924B29
:10185000932B000E9225D96E010E9321DA6E000EA5
:10186000DF6E650E7E19D8A47FD4000E8B6F4F0EED
:101870008A6F000E8A25D96E010E8B21DA6E000E5A
:10188000DF6E000E7B6F000E7A6F91AF08D0000EF6
:101890007B6F010E7A6F906D911FD8B0912B000E67
:1018A0007D6F020E7C6F2BD08A07D8A08B07000EAD
:1018B0008A25D96E010E8B21DA6E90C001F091C09D
:1018C00002F0000E046E0A0E036E27EC1CF00150AD
:1018D000300FDF6E90C001F091C002F0000E046E78
:1018E0000A0E036EA9EC1AF001C090F002C091F04C
:1018F00000017C07D8A07D077F07D8A08007905102
:101900009111D8A4D1D77DBF05D07D51CDE17C0503
:10191000D8B0CAD78A07D8A08B077A517B11D8A430
:1019200004D0000E6B6F2B0E03D0000E6B6F2D0ECC
:101930006A6F000E8A25D96E010E8B21DA6E6AC09D
:10194000DFFF7F07D8A080078A07D8A08B07BF0ECC
:101950003B6EFF0E3C6E3A503D6E3E6A3B503D265C
:101960003C503E223E5006E11A0E3D5CD8B002D0FB
:10197000010E01D0000E6E6F6F6B6E516F11D8A407
:1019800004D0000E6D6F650E03D0000E6D6F450E16
:101990006C6F000E8A25D96E010E8B21DA6E6CC039
:1019A000DFFF7F07D8A08007000E9225016E010E91
:1019B0009321026E000E8A25036E010E8B21046EA8
:1019C000A3EC1DF0B4EF08F042C0D9FF43C0DAFF2A
:1019D000DECFF6FFDDCFF7FF0800F550250AD8A4CB
:1019E000ABD142C0D9FF43C0DAFFDE2A000EDD22B0
:1019F000000E0001E56F000EE46FE4C0E8F0E5C002
:101A0000E9F0E669E76942C0D9FF43C0DAFFDECFFB
:101A1000F6FFDDCFF7FF0800F5502E0AD8A46DD0F1
:101A2000000EE76F000EE66F42C0D9FF43C0DAFF39
:101A3000DE2A000EDD2242C0D9FF43C0DAFFDECF2E
:101A4000F6FFDDCFF7FF0800F5502A0AD8A41CD016
:101A500042C0D9FF43C0DAFFDE2A000EDD2244C0B7
:101A6000D9FF45C0DAFFDFCF46F0020EDE26DFCF1A
:101A700047F0000EDD2246C0D9FF47C0DAFFDECFB7
:101A8000E6F0DDCFE7F039D042C0D9FF43C0DAFF3E
:101A9000DECF08F0DDCF09F09CEC15F008C0E6F0D1
:101AA00009C0E7F007D042C0D9FF43C0DAFFDE2A01
:101AB000000EDD22D00E466EFF0E476E42C0D9FFEB
:101AC00043C0DAFFDECFF6FFDDCFF7FF0800F550A9
:101AD000486E496A4650482647504922495006E117
:101AE0000A0E485CD8B002D0010E01D0000E4A6E3A
:101AF0004B6A4A504B10D8A4D6D742C0D9FF43C036
:101B0000DAFFDECFF6FFDDCFF7FF0800F550076EF6
:101B1000086A48EC1EF00750526E5250D8B433D0C9
:101B200042C0D9FF43C0DAFFDECF46F0DDCF47F039
:101B3000010E4626000E472246C0F6FF47C0F7FFBB
:101B40000800F550076E086A48EC1EF00750536E07
:101B50005350D8B418D042C0D9FF43C0DAFFDECF0B
:101B600046F0DDCF47F0020E4626000E472246C063
:101B7000F6FF47C0F7FF0800F550076E086A48EC0B
:101B80001EF00750546E660E5218D8A43FD042C0C3
:101B9000D9FF43C0DAFFDECFF6FFDDCFF7FF080045
:101BA000F5CF55F042C0D9FF43C0DAFFDE2A000E60
:101BB000DD2244C0D9FF45C0DAFFDFCF46F0040E76
:101BC000DE26DFCF47F0000EDD2246C0D9FF47C03A
:101BD000DAFFDECF4EF0DECF4FF0DECF50F0DECFBB
:101BE00051F040C034F041C035F04EC036F04FC027
:101BF00037F050C038F051C039F055C03AF026ECFB
:101C000008F034C040F035C041F01200520E016EB1
:101C1000000E026E390E036E100E046E000E066E7C
:101C2000020E056E76EC19F001500210D8A455D0C2
:101C300042C0D9FF43C0DAFFDECF46F0DDCF47F028
:101C4000010E4626000E472246C0F6FF47C0F7FFAA
:101C50000800F5CF55F0BF0E466EFF0E476E42C02E
:101C6000D9FF43C0DAFFDECFF6FFDDCFF7FF080074
:101C7000F550486E496A4650482647504922495017
:101C800006E11A0E485CD8B002D0010E01D0000E59
:101C90004C6E4D6A4C504D1044C0D9FF45C0DAFF20
:101CA000DFCF46F0040EDE26DFCF47F0000EDD2248
:101CB00046C0D9FF47C0DAFFDECF4EF0DECF4FF08F
:101CC000DECF50F0DECF51F0020E42C0D9FF43C04C
:101CD000DAFFDE26000EDD2284D742C0D9FF43C0E2
:101CE000DAFFDECFF6FFDDCFF7FF0800F550250A5B
:101CF000D8A416D042C0D9FF43C0DAFFDE2A000EB6
:101D0000DD22000E026E250E016E40C003F041C0C0
:101D100004F0C7EC19F0000E416E010E406E120087
:101D200042C0D9FF43C0DAFFDE2A000EDD22000EDA
:101D3000416E000E406E120042C0D9FF43C0DAFF70
:101D4000DECFF6FFDDCFF7FF0800F550016E026A27
:101D500040C003F041C004F0C7EC19F042C0D9FF05
:101D600043C0DAFFDE2A000EDD22D5D71250800BE9
:101D70001B6E12501224216E11BE21802150D8B446
:101D80000DD02128D8A408D0000E0F6E000E106EC2
:101D9000000E116E000E126E118E08D0000E0F6E26
:101DA000000E106E000E116E000E126E1650800B9B
:101DB0001B1A16501624206E15BE20802050D8B451
:101DC0000DD02028D8A408D0000E136E000E146E7B
:101DD000000E156E000E166E158E08D0000E136ED6
:101DE000000E146E000E156E000E166E2050D8B444
:101DF00003D02150D8A409D0000E0F6E000E106E33
:101E0000000E116E000E126E120015500F02F3CF6D
:101E100026F0F4CF27F026501C6E1D6A1E6A1F6A3A
:101E20002750226E236A246A256A14501002F3CFC9
:101E300026F0F4CF27F026501C26000E1D221E226D
:101E40001F2227502226000E23222422252213504F
:101E50001102F3CF26F0F4CF27F026501C26000EF7
:101E60001D221E221F2227502226000E232224225A
:101E700025221EC01FF01DC01EF01CC01DF01C6AD4
:101E800013501002F3CF26F0F4CF27F026501C2673
:101E900027501D22000E1E22000E1F2214500F027A
:101EA000F3CF26F0F4CF27F026501C2627501D2212
:101EB000000E1E22000E1F221EC01FF01DC01EF0AD
:101EC0001CC01DF01C6A13500F02F3CF26F0F4CF94
:101ED00027F026501C2627501D22000E1E22000E21
:101EE0001F2215501002F3CF26F0F4CF27F0265012
:101EF000222627502322000E2422000E25221450D1
:101F00001102F3CF26F0F4CF27F0265022262750D7
:101F10002322000E2422000E252215501102F3CF99
:101F200026F0F4CF27F02650176E2750186E196A46
:101F30001A6A19C01AF018C019F017C018F0176AF9
:101F40001750222618502322195024221A502522D5
:101F50001CC017F01DC018F01EC019F01FC01AF0E9
:101F6000190E05D0D8901A32193218321732E82ECD
:101F7000F9D71750222618502322195024221A501C
:101F800025221EC01FF01DC01EF01CC01DF01C6AC3
:101F9000205021C017F0186A1726000E1822820E52
:101FA0001724266EFF0E1820276E0FD0D8902236E9
:101FB0002336243625361FBE2280D8901C361D3687
:101FC0001E361F362606D8A0270624AEEFD7000EF1
:101FD000206E1FAE17D0FF0E1C14176EFF0E1D14BF
:101FE000186EFF0E1E14196E7F0E1F141A6E1750F6
:101FF000181019101A10D8B403D0010E206E02D098
:1020000022B0FBD72050D8B41FD0010E2226000EDC
:1020100023222422252225A017D022C017F023C076
:1020200018F024C019F025C01AF01A341A321932E7
:102030001832173217C022F018C023F019C024F04C
:102040001AC025F0264A272A27BE0DD0275003E1C3
:102050002628D8A008D0000E226E000E236E800E17
:10206000246E7F0E20D027BE05D027500EE1260417
:10207000D8B00BD0000E226E000E236E000E246E20
:10208000000E256E000E1B6E0FD026C021F0FF0E35
:102090002216FF0E23167F0E2416000E251621B0E1
:1020A000248ED8902130256E1B50251222C00FF0AF
:1020B00023C010F024C011F025C012F01200CDECA6
:1020C0001DF09DEC1FF0C0EC1FF05FEC1CF0B2ECBB
:1020D0001FF01BEC19F0DEC034F0DFC035F0E0C0BB
:1020E00036F0E1C037F0F0EC1EF0000E0001AF6FEB
:1020F000320EAE6F000E676E000EBE6E000EB16F38
:10210000000EB06F0001B051B111D8A419D0DCECB1
:1021100016F079EC1DF0000E0001B16F010EB06FEA
:10212000D00E5E6ECA0EE82EFED75E2EFCD7000ED5
:10213000C46ED00E5E6ECA0EE82EFED75E2EFCD7A1
:102140000001B005B111D8A419D06FEC17F0C5EC9F
:102150001CF0000E0001B16F020EB06FD00E5E6E6B
:10216000CA0EE82EFED75E2EFCD7000EC46ED00E2F
:102170005E6ECA0EE82EFED75E2EFCD7020E000160
:10218000B019B111D8A419D01BEC19F095EC1CF0C2
:10219000000E0001B16F000EB06FD00E5E6ECA0E61
:1021A000E82EFED75E2EFCD7000EC46ED00E5E6EFB
:1021B000CA0EE82EFED75E2EFCD7000E286E000E4B
:1021C000296E400E2A6E410E2B6EAAC02CF0ABC0B9
:1021D0002DF0ACC02EF0ADC02FF0F0EC17F0D8B061
:1021E0007CD0000E336E000E326E2CEC1BF0AEC0B5
:1021F00067FF0001AE4BAF2B6FEC17F0DCEC16F075
:10220000DAC00FF0DBC010F0DCC011F0DDC012F05E
:10221000D6C013F0D7C014F0D8C015F0D9C016F04E
:10222000B6EC0EF00FC0B6F010C0B7F011C0B8F0A9
:1022300012C0B9F0B2C028F0B3C029F0B4C02AF07F
:10224000B5C02BF0B6C02CF0B7C02DF0B8C02EF042
:10225000B9C02FF0F0EC17F0D8B009D0B6C0B2F08A
:10226000B7C0B3F0B8C0B4F0B9C0B5F036D0000113
:10227000AE51FE0F676E6FEC17F0DCEC16F0DAC0B3
:102280000FF0DBC010F0DCC011F0DDC012F0D6C0E2
:1022900013F0D7C014F0D8C015F0D9C016F0B6ECC2
:1022A0000EF00FC0B6F010C0B7F011C0B8F012C0F9
:1022B000B9F0B2C028F0B3C029F0B4C02AF0B5C05C
:1022C0002BF0B6C02CF0B7C02DF0B8C02EF0B9C0BE
:1022D0002FF0F0EC17F0D8A0C1D7000E286E000E3A
:1022E000296E400E2A6E410E2B6EAAC02CF0ABC098
:1022F0002DF0ACC02EF0ADC02FF0F0EC17F0D8A050
:1023000001D7000E336E5A0E326EEBEC1AF0000E4F
:10231000BE6E6FEC17F0DCEC16F0DAC00FF0DBC02D
:1023200010F0DCC011F0DDC012F0D6C013F0D7C041
:1023300014F0D8C015F0D9C016F0B6EC0EF00FC0EE
:10234000B6F010C0B7F011C0B8F012C0B9F0B2C00A
:1023500028F0B3C029F0B4C02AF0B5C02BF0B6C045
:102360002CF0B7C02DF0B8C02EF0B9C02FF0F0ECB3
:1023700017F0D8B009D0B6C0B2F0B7C0B3F0B8C04B
:10238000B4F0B9C0B5F0BED66FEC17F0DCEC16F0C7
:10239000DAC00FF0DBC010F0DCC011F0DDC012F0CD
:1023A000D6C013F0D7C014F0D8C015F0D9C016F0BD
:1023B000B6EC0EF00FC0B6F010C0B7F011C0B8F018
:1023C00012C0B9F0B2C028F0B3C029F0B4C02AF0EE
:1023D000B5C02BF0B6C02CF0B7C02DF0B8C02EF0B1
:1023E000B9C02FF0F0EC17F0D8A0C5D78BD60450A9
:1023F000800B0D6E045004240F6E03BE0F800F502F
:10240000D8B40DD00F28D8A408D0000E016E000E4D
:10241000026E000E036E000E046E038E06D0000ED8
:10242000016E000E026E000E036E000E046E085068
:10243000800B0E6E0D500E18D8A40D8C0850082479
:102440000E6E07BE0E800E50D8B40DD00E28D8A444
:1024500008D0000E056E000E066E000E076E000E10
:10246000086E078E06D0000E056E000E066E000E7A
:10247000076E000E086E0F500E5CD8B022D00DAC67
:1024800002D0800E0D1A0FC010F00EC00FF010C059
:102490000EF001C010F005C001F010C005F002C040
:1024A00010F006C002F010C006F003C010F007C024
:1024B00003F010C007F004C010F008C004F010C012
:1024C00008F0000E106E0F500EC009F00A6A095E87
:1024D000000E0A5A0ABE2CD00A5004E11A0E095CFA
:1024E000D8A026D00150021003100410D8B402D096
:1024F000010E01D0000E106E000E016E000E026E75
:10250000000E036E000E046E0EC00FF015D010A06A
:1025100005D0D89010300109106E02D0D89010323A
:1025200001B0108E043404320332023201320F2A19
:102530000E500F5CD8A0EBD70DBC28D00F50D8A4FC
:1025400009D0000E016E000E026E000E036E000E2A
:10255000046E120005500126065002220750032285
:102560000850042204A071D010A005D0D8901030DB
:102570000109106E02D0D890103201B0108E0434D0
:1025800004320332023201320F2A5FD00550015C5F
:1025900006500258075003580450800A096E08502C
:1025A000800A0958D8B025D00150055C096E025048
:1025B00006580A6E035007580B6E045008580C6EEC
:1025C000FF0E0924016EFF0E0A20026EFF0E0B2083
:1025D000036EFF0E0C20046E800E0D1A106C10504E
:1025E000D8A40FD0010E0126000E022203220422DD
:1025F00008D00550015E0650025A0750035A085091
:10260000045A0150021003100410D8A41CD010501A
:10261000D8A419D0000E016E000E026E000E036EDB
:10262000000E046E1200D8900136023603360436CE
:1026300010BE018010A002D0D88001D0D8901036F2
:102640000F50D8A40F0603AEEED7000E0E6E10AEDC
:102650000BD010C009F07F0E0916D8B403D0010EBC
:102660000E6E02D001B0FBD70E50D8B420D0010EB0
:102670000126000E02220322042204A018D001C069
:1026800009F002C00AF003C00BF004C00CF00C34D7
:102690000C320B320A32093209C001F00AC002F0D2
:1026A0000BC003F00CC004F00F28D8A40F2A0F2889
:1026B000D8B403D00F50D8A40DD0000E016E000E78
:1026C000026E000E036E000E046E0F50D8A402D0EE
:1026D000000E0D6E0FA002D0038E01D0039ED89085
:1026E0000F30046E0DBE048E01C001F002C002F076
:1026F00003C003F004C004F012000450800B116EFC
:1027000004500424186E03BE18801850D8B40DD09D
:102710001828D8A408D0000E016E000E026E000E1C
:10272000036E000E046E038E06D0000E016E000EC6
:10273000026E000E036E000E046E0850800B111A1C
:1027400008500824196E07BE19801950D8B40DD04E
:102750001928D8A408D0000E056E000E066E000ED3
:10276000076E000E086E078E06D0000E056E000E76
:10277000066E000E076E000E086E0550061007105C
:102780000810D8A417D0000E016E000E026E000EC5
:10279000036E000E046E800E03127F0E04121150A1
:1027A000041201C001F002C002F003C003F004C033
:1027B00004F012001850D8A409D0000E016E000ECB
:1027C000026E000E036E000E046E1200195018C047
:1027D00009F00A6A095E000E0A5A7F0E0924126E79
:1027E000000E0A20136E01C00DF002C00EF003C0EF
:1027F0000FF004C010F0000E016E000E026E000E0D
:10280000036E000E046E000E146E000E156E000EA8
:10281000166E000E176E000E196E28D01950D8B41F
:1028200011D0D8900D360E360F361036D8900136AE
:1028300002360336043617BE0180D890143615369A
:102840001636173605500D5C06500E5807500F58B7
:1028500008501058D8A009D0178C05500D5E0650AE
:102860000E5A07500F5A0850105A192A190E196497
:10287000D5D70D500E100F101010D8B411D01480F1
:102880000FD0D890013602360336043617BE0180C9
:10289000D89014361536163617361206D8A01306F9
:1028A00003AEEFD7000E196E17AE17D0FF0E14143B
:1028B000096EFF0E15140A6EFF0E16140B6E7F0EB6
:1028C00017140C6E09500A100B100C10D8B403D05A
:1028D000010E196E02D001B0FBD71950D8B41FD029
:1028E000010E0126000E02220322042204A017D0AA
:1028F00001C009F002C00AF003C00BF004C00CF0E4
:102900000C340C320B320A32093209C001F00AC011
:1029100002F00BC003F00CC004F0124A132A13BEDD
:1029200010D0135003E11228D8A00BD0000E136E64
:102930001268000E016E000E026E000E036E000E95
:10294000046E13BE05D0135011E11204D8B00ED09E
:10295000000E136E000E126E000E016E000E026E5F
:10296000000E036E000E046E000E116E12C018F001
:1029700018A002D0038E01D0039ED8901830046EA8
:102980000ED7BAC02AF0BBC02BF0BCC02CF0BDC023
:102990002DF01AC02AF01BC02BF01CC02CF01DC05B
:1029A0002DF0810E1E6EFF0E1F6E2AC020F02BC070
:1029B00021F02CC022F02DC023F0180E05D0D890A5
:1029C0002332223221322032E82EF9D720501E2421
:1029D000286E000E1F20296E29BE0FD0295004E159
:1029E000170E285CD8A009D01AC01AF01BC01BF023
:1029F0001CC01CF01DC01DF0120029BE5ED028C0F6
:102A00001EF0FF0E1F6EFF0E206E7F0E216E000E59
:102A1000226E1E6601D007D02234223221322032AB
:102A20001F321E2EF6D71FC024F020C025F021C073
:102A300026F022C027F024502A141E6E25502B1495
:102A40001F6E26502C14206E27502D14216E1E5000
:102A50001F1020102110D8B4C7D72AC01EF02BC0D9
:102A60001FF02CC020F02DC021F0200E05D0D890F2
:102A7000213220321F321E32E82EF9D71E501F108D
:102A800020102110D8B408D024502A2625502B22FB
:102A900026502C2227502D22241C1E6E251C1F6E12
:102AA000261C206E271C216E1E502A161F502B1626
:102AB00020502C1621502D1636D02AC01EF02BC0C7
:102AC0001FF02CC020F02DC021F0200E05D0D89092
:102AD000213220321F321E32E82EF9D71E501F102D
:102AE00020102110D8A408D0000E2A6E000E2B6EE4
:102AF000000E2C6E000E16D0D8902A341E6E2B3489
:102B00001F6E2C34206E2D34216E1E501F1020108D
:102B10002110D8B408D0000E2A6E000E2B6E800E45
:102B20002C6EBF0E2D6E2AC01AF02BC01BF02CC0CD
:102B30001CF02DC01DF01200000E166E000E156E5A
:102B4000000E0F6E000E0E6E02D0084A092A010E0A
:102B5000146E08C0F6FF09C0F7FF0800F550200A00
:102B6000D8B418D0F70E0A6EFF0E0B6E08C0F6FF31
:102B700009C0F7FF0800F5500C6E0D6A0A500C26CC
:102B80000B500D220D5004E1050E0C5CD8A002D0B4
:102B9000000E146E14C010F0116A10501110D8B449
:102BA00008D0D3D7000E0F6E010E0E6E084A092A08
:102BB0002ED008C0F6FF09C0F7FF0800F5500A6ED6
:102BC0000B6A0B50000AD8A422D00A502B0AD8B4A2
:102BD000EDD7060AD8B4E6D71AD015C001F016C052
:102BE00002F0000E046E0A0E036E68EC1FF008C0BF
:102BF000F6FF09C0F7FF0800F550015E000E025A0B
:102C0000300E0124156E000E0220166ECFD7D00EA6
:102C10000A6EFF0E0B6E08C0F6FF09C0F7FF080032
:102C2000F5500C6E0D6A0A500C260B500D220D50FB
:102C300006E10A0E0C5CD8B002D0010E01D0000EE5
:102C4000126E136A12501310D8A4C7D70E500F106B
:102C5000D8A40DD015C00AF016C00BF00A1E0B1E2A
:102C60000A4A0B2A0AC008F00BC009F0120015C06E
:102C700008F016C009F01200096E0950D8A404AE7D
:102C80001AD001C005F002C006F003C007F004C06E
:102C900008F0051E061E071E081E052A000E062245
:102CA0000722082205C00BF006C00CF007C00DF08B
:102CB00008C00EF008D001C00BF002C00CF003C039
:102CC0000DF004C00EF00150021003100410D8A43F
:102CD00009D0000E016E000E026E000E036E000E93
:102CE000046E1200960E0A6E06D00A2AD8900E3292
:102CF0000D320C320B32000E0B14056E000E0C144C
:102D0000066E000E0D14076EFE0E0E14086E0550B2
:102D1000061007100810D8B40DD0E7D70A2A010E04
:102D20000B26000E0C220D220E22D8900E320D32F0
:102D30000C320B32000E0B14056E000E0C14066ED6
:102D4000000E0D14076EFF0E0E14086E05500610CF
:102D500007100810D8B407D0E1D70A06D8900B3670
:102D60000C360D360E360DBE03D0020E0A60F5D7B6
:102D70000AA00D9ED8900A320AC005F0066A076ABA
:102D8000086A05C008F0076A066A056A05500B1252
:102D900006500C1207500D1208500E120950D8A4FC
:102DA00004AE01D00E8E0BC001F00CC002F00DC0BD
:102DB00003F00EC004F01200070EC26ED00E346E87
:102DC000CA0EE82EFED7342EFCD7C282090E356E0D
:102DD0001E0E346EE40EE82EFED7342EFCD7352EB0
:102DE000FAD700D0C450016E026A036A046A000E6A
:102DF0003CEC16F001C0CAF002C0CBF003C0CCF02E
:102E000004C0CDF0CAC00FF0CBC010F0CCC011F0A0
:102E1000CDC012F0000E136E000E146EA00E156ED3
:102E20003C0E166EB6EC0EF00FC0C6F010C0C7F028
:102E300011C0C8F012C0C9F0C6C001F0C7C002F08E
:102E4000C8C003F0C9C004F0000E056E000E066E87
:102E5000800E076E3E0E086E7DEC13F001C0DAF0B6
:102E600002C0DBF003C0DCF004C0DDF0660E286EAB
:102E7000660E296E660E2A6E410E2B6EDAC02CF09D
:102E8000DBC02DF0DCC02EF0DDC02FF0F0EC17F031
:102E9000D8B01200D00E346ECA0EE82EFED7342EF3
:102EA000FCD7000EBE6E000E676EB2EC1FF0010E76
:102EB0000B6E010E20EC1EF0010E086E100E096E56
:102EC000ECEC1BF0090E356E1E0E346EE40EE82E8F
:102ED000FED7342EFCD7352EFAD700D0F3D70B0E01
:102EE000C26ED00E346ECA0EE82EFED7342EFCD73A
:102EF000C282090E356E1E0E346EE40EE82EFED729
:102F0000342EFCD7352EFAD700D0C450016E026A99
:102F1000036A046A000E3CEC16F001C0D2F002C055
:102F2000D3F003C0D4F004C0D5F0D2C00FF0D3C0AA
:102F300010F0D4C011F0D5C012F0950E136E940E9F
:102F4000146E940E156E3C0E166EB6EC0EF00FC09D
:102F5000CEF010C0CFF011C0D0F012C0D1F0CEC072
:102F6000D6F0CFC0D7F0D0C0D8F0D1C0D9F0000E85
:102F7000286E000E296E000E2A6E400E2B6ED6C0F3
:102F80002CF0D7C02DF0D8C02EF0D9C02FF0F0EC27
:102F900017F0D8B01200D00E346ECA0EE82EFED74D
:102FA000342EFCD7000EBE6E000E676EB2EC1FF022
:102FB000010E0B6E010E20EC1EF00E0E086E100EB0
:102FC000096EECEC1BF0090E356E1E0E346EE40E2D
:102FD000E82EFED7342EFCD7352EFAD700D0F3D703
:102FE000000E2814306E000E2914316E800E2A1443
:102FF000326E7F0E2B14336E30503110321033107E
:10300000D8A408D0000E286E000E296E000E2A6E7D
:10301000000E2B6E000E2C14306E000E2D14316E2F
:10302000800E2E14326E7F0E2F14336E30503110FE
:1030300032103310D8A408D0000E2C6E000E2D6E66
:10304000000E2E6E000E2F6E2BAE09D0286C291E9E
:10305000D8B0292A2A1ED8B02A2A800E2B562FAE85
:1030600009D02C6C2D1ED8B02D2A2E1ED8B02E2A99
:10307000800E2F56000E281A000E291A000E2A1A4A
:10308000800E2B1A000E2C1A000E2D1A000E2E1A6E
:10309000800E2F1A2C50285C2D5029582E502A585B
:1030A0002F502B58D8B002D0D8901200D8801200E0
:1030B000BEC00BF0BFC00CF0C0C00DF0C1C00EF020
:1030C00001C00BF002C00CF003C00DF004C00EF004
:1030D0000BC005F00CC006F00DC007F00EC008F0E4
:1030E000180E05D0D8900832073206320532E82E85
:1030F000F9D70550096E0A6A09500A10D8A419D0E8
:10310000D8900B34056E0C34066E0D34076E0E34F9
:10311000086E0550061007100810D8A405D0000E40
:10312000026E020E016E1200000E026E030E016EA0
:10313000120009280A10D8A41CD00BC005F00CC03E
:1031400006F00DC007F00EC008F0090ED890053645
:10315000063607360836E82EF9D705500610071050
:103160000810D8A402D0010E01D0000E016E026A30
:103170001200000E026E040E016E12002A342B346F
:10318000316E3150D8A409D0000E286E000E296E81
:10319000000E2A6E000E2B6E120028C02CF029C0E3
:1031A0002DF02AC02EF02BC02FF0200E05D0D89085
:1031B0002F322E322D322C32E82EF9D72C50306E91
:1031C0002A8EFF0E2816FF0E2916FF0E2A16000E55
:1031D0002B16960E315E31AE0DD03150800A970F0E
:1031E000D8A0D2D7D8902B322A3229322832313E79
:1031F000F9D70DD01F0E316407D0C6D7D890283626
:1032000029362A362B3631063150D8A4F7D730501C
:10321000D8B408D02B1E2A1E291E286C000E292285
:103220002A222B2228C028F029C029F02AC02AF0FF
:103230002BC02BF012000F0EC26ED00E286ECA0EDD
:10324000E82EFED7282EFCD7C282090E296E1E0E4C
:10325000286EE40EE82EFED7282EFCD7292EFAD7AA
:1032600000D0C450016E026A036A046A000E3CEC8E
:1032700016F001C0CAF002C0CBF003C0CCF004C00D
:10328000CDF0CAC00FF0CBC010F0CCC011F0CDC053
:1032900012F0000E136E000E146EA00E156E3C0E92
:1032A000166EB6EC0EF00FC0C6F010C0C7F011C01D
:1032B000C8F012C0C9F0C6C001F0C7C002F0C8C053
:1032C00003F0C9C004F0CD0E056ECC0E066E4C0E98
:1032D000076E3E0E086E7DEC13F001C0DEF002C0FA
:1032E000DFF003C0E0F004C0E1F0120001C008F01C
:1032F00002C009F003C00AF004C00BF00506D8A014
:10330000060605280FE10628D8A40CD0000E026E90
:10331000000E016E1200084A092A0A4A0B2A050605
:10332000D8A0060608C0D9FF09C0DAFFDF50D8B41C
:103330001CD00AC0F6FF0BC0F7FF0800F5500009CB
:10334000D8B413D005500610D8B40FD008C0D9FF98
:1033500009C0DAFFDF50076E0AC0F6FF0BC0F7FFA7
:103360000800F5500718D8B4D6D708C0D9FF09C04F
:10337000DAFFDF50076E0AC0F6FF0BC0F7FF080048
:10338000F550075C016E026AD8A0020612000350D5
:103390000410D8B404D003500410D8A404D00150B1
:1033A000D3EC1FF0120020EE04F00350D926045095
:1033B000DA22DE50DE10D8B416D020EE04F003502E
:1033C000D9260450DA2210EE02F00350E126045010
:1033D000E222DE50E65CE650800A096EDE50800A8A
:1033E0000958D8B0120020EE02F00350D92604503C
:1033F000DA22DECF05F0DDCF06F003C0D9FF04C02E
:10340000DAFFDECF07F0DDCF08F005500724D96ED4
:1034100006500820DA6E01C0DFFF20EE02F00350F4
:10342000D9260450DA22DE2A000EDD221200000125
:10343000E8A10AD013C00AF014C00BF011C00CF0C0
:1034400012C00DF0D4EC1EF016BE05D015C01AF057
:1034500016C01BF004D0000E1B6E000E1A6E000E7C
:10346000196E000E186E0CD0000E026E200E016E4A
:1034700011C003F012C004F0C7EC19F0184A192A61
:103480001A50185C1950800A176E1B50800A175882
:10349000D8A0EAD70001E8B10AD013C00AF014C0DE
:1034A0000BF011C00CF012C00DF0D4EC1EF013C0E4
:1034B00001F014C002F053EC1FF01A500124116EF9
:1034C0001B500220126E1200000E0114096E000E35
:1034D00002140A6E800E03140B6E7F0E04140C6E21
:1034E00009500A100B100C10D8A408D0000E016E61
:1034F000000E026E000E036E000E046E000E051428
:10350000096E000E06140A6E800E07140B6E7F0EF5
:1035100008140C6E09500A100B100C10D8A408D017
:10352000000E056E000E066E000E076E000E086E91
:10353000055001180AE10650021807E10750031868
:1035400004E108500418D8B402D0D8901200D880F2
:103550001200000E066E04AE06D0036C041ED8B036
:10356000042A010E066E02AE06D0016C021ED8B00F
:10357000022A010E061A000E086E000E076E035096
:103580000410D8B41CD0010E056E04D0D8900336B8
:103590000436052A04AEFAD7D89007360836035009
:1035A000015C04500258D8A005D00350015E0450BD
:1035B000025A0780D89004320332052EEDD7065008
:1035C000D8B404D0076C081ED8B0082A07C001F090
:1035D00008C002F0120033BE0AD0335004E1650E79
:1035E000325CD8A004D0000E336E640E326E33AE5F
:1035F00004D0000E336E000E326E7B0E136E140E6E
:10360000146ECE0E156E3F0E166E32C001F033C032
:1036100002F0000E02BEFF0E036E046E010E3CECC3
:1036200016F001C00FF002C010F003C011F004C08A
:1036300012F0B6EC0EF00FC028F010C029F011C047
:103640002AF012C02BF0BEEC18F028C0EAF029C016
:10365000EBF0EAC067FF120033BE0AD0335004E13A
:10366000650E325CD8A004D0000E336E640E326E4C
:1036700033AE04D0000E336E000E326E7B0E136E2E
:10368000140E146ECE0E156E3F0E166E32C001F083
:1036900033C002F0000E02BEFF0E036E046E010E78
:1036A0003CEC16F001C00FF002C010F003C011F0A6
:1036B00004C012F0B6EC0EF00FC028F010C029F0D4
:1036C00011C02AF012C02BF0BEEC18F028C0EAF0AE
:1036D00029C0EBF0EAC0BEFF1200000E096E000E1A
:1036E0000A6E000E0B6E000E0C6E055006100710D1
:1036F0000810D8B42AD0010E0D6E06D0D890053629
:103700000636073608360D2A08AEF8D7D89009369F
:103710000A360B360C360550015C0650025807502D
:10372000035808500458D8A009D00550015E06502F
:10373000025A0750035A0850045A0980D890083298
:103740000732063205320D2EE1D709C001F00AC05A
:1037500002F00BC003F00CC004F01200000E8CEC61
:103760001FF0020E0C6EA00E0B6E920EE82EFED70E
:103770000B2EFCD70C2EFAD700D0030E6EEC1EF0E9
:10378000680E0B6EE40EE82EFED70B2EFCD700D091
:10379000030E6EEC1EF0E50E0B6E910EE82EFED7BA
:1037A0000B2EFCD700F0030E6EEC1EF0020E6EEC3A
:1037B0001EF0020E6EEC1EF0080E6EEC1EF0000EF7
:1037C0006EEC1EF00C0E6EEC1EF0000E6EEC1EF099
:1037D000060E6EEC1EF01200000E0D6E000E0C6E4A
:1037E0001BD00C5008240A6E0D5009200B6E0AC025
:1037F000F6FF0BC0F7FF000EF86E0F0EF76403D054
:103800000800F55005D0F6CFE9FFF7CFEAFFEF50FB
:1038100022EC1DF00C4A0D2A0C5008240A6E0D50A3
:1038200009200B6E0AC0F6FF0BC0F7FF000EF86E02
:103830000F0EF76403D00800F55005D0F6CFE9FF6E
:10384000F7CFEAFFEF500009D8B41200CAD7000E34
:10385000066E02AE06D0016C021ED8B0022A010E1E
:10386000066E04AE04D0036C041ED8B0042A0350C4
:103870000410D8B418D0010E056E04D0D8900336C9
:103880000436052A04AEFAD70350015C04500258EE
:10389000D8A004D00350015E0450025AD8900432DC
:1038A0000332052EF1D70650D8B404D0016C021EA5
:1038B000D8B0022A01C001F002C002F012009486C2
:1038C0009488A00E0E6E860E0F6E010E106E000E06
:1038D000116EF5EC1CF0090E176E1E0E166EE40E3E
:1038E000E82EFED7162EFCD7172EFAD700D0AEEC56
:1038F0001BF0B2EC1FF0B9EC1FF0010E0B6E010EC5
:1039000020EC1EF0200E086E100E096EECEC1BF081
:10391000090E176E1E0E166EE40EE82EFED7162E3A
:10392000FCD7172EFAD700D01200090E0B6E010E2D
:1039300020EC1EF0350E086E100E096EECEC1BF03C
:10394000F40E0001986F000E996F1B0E9A6F100E07
:103950009B6FDEC09CF0DFC09DF0E0C09EF0E1C038
:103960009FF0F7EC1DF00C0E0B6E010E20EC1EF01C
:10397000F40E086E000E096EECEC1BF0450E086E9E
:10398000100E096EECEC1BF01200010E0B6E020E15
:1039900020EC1EF03C0E086E100E096EECEC1BF0D5
:1039A000580E0001986F010E996F1B0E9A6F100E42
:1039B0009B6FD6C09CF0D7C09DF0D8C09EF0D9C0F8
:1039C0009FF0F7EC1DF0030E0B6E020E20EC1EF0C4
:1039D000580E086E010E096EECEC1BF0420E086EDC
:1039E000100E096EECEC1BF01200280EC66E000ED5
:1039F000C56E000E016E900E026ED00E036E030EA9
:103A0000046E0EC012F00FC013F010C014F011C0FD
:103A100015F0020ED8901236133614361536E82EED
:103A2000F9D712C005F013C006F014C007F015C096
:103A300008F06DEC1BF00104C86E000EC76E948692
:103A400094881200056E05500F0B076E0738F00BB7
:103A5000076E0550F00B066E010E8CEC1FF0065041
:103A60008CEC1FF0065005098CEC1FF0D50EE82EEB
:103A7000FED700F0065001098CEC1FF007508CECCB
:103A80001FF0075005098CEC1FF0D50EE82EFED76D
:103A900000F0075001098CEC1FF0120058C05CF0D8
:103AA00059C05DF0000E0001E36F000EE26F13D00D
:103AB00056C040F057C041F05C0E426E000E436E9F
:103AC0005AC044F05BC045F0E4EC0CF040500001FB
:103AD000E2274150E3235CC0F6FF5DC0F7FF08001A
:103AE000F5500009D8A4E4D7E2C056F0E3C057F07F
:103AF0001200010E0B6E010E20EC1EF03F0E086E40
:103B0000100E096EECEC1BF0F40E0001986F000E25
:103B1000996F1B0E9A6F100E9B6FDAC09CF0DBC082
:103B20009DF0DCC09EF0DDC09FF0F7EC1DF0030EB1
:103B30000B6E010E20EC1EF0F40E086E000E096EE6
:103B4000ECEC1BF0120003C007F004C008F001C049
:103B500009F002C00AF00750056E0850066E074AC9
:103B6000082A05C0F6FF06C0F7FF000EF86E09C070
:103B7000D9FF0AC0DAFF094A0A2A0F0EF76403D0F8
:103B80000800F55005D0F6CFE9FFF7CFEAFFEF5078
:103B9000DF6EDF50D8B41200DED79268000E936E4D
:103BA000000E946E000E956E9668000E806E000EEC
:103BB000816E000E826E000E836E000E846E000E0B
:103BC000896E000E8A6E000E8B6E000E8C6E000EDB
:103BD0008D6E0F013869000E396F000E3A6F000EBE
:103BE0003B6F000E3C6F740ED36E9B8C12009C0ECC
:103BF0000001A26F000EA36F98C0A4F099C0A5F0B9
:103C0000000EA76F000EA66F000EA96F000EA86F22
:103C1000A40E566E000E576E9AC058F09BC059F015
:103C2000A20E5A6E000E5B6E4EEC1DF00001A65106
:103C30009825D96EA7519921DA6E000EDF6E120019
:103C40000C6E0C04D8A410D00B507F0F0F6E0F38E1
:103C50000F0B0D6E0F500F0B0E6E0D506EEC1EF015
:103C60000E506EEC1EF01200020E0C18D8A41200BA
:103C70000B50BF0F0F6E0F380F0B0D6E0F500F0B49
:103C80000E6E0D506EEC1EF00E506EEC1EF012001B
:103C9000BF0E096EFF0E0A6E07C00BF008C00CF0D5
:103CA00009500B260A500C220C5006E11A0E0B5C30
:103CB000D8B002D0010E01D0000E0D6E0E6A0D506C
:103CC0000E10D8B406D0200E0710076E0850086EEC
:103CD000120007C007F008C008F012000A6E0A3888
:103CE000F00B0A6E000E8CEC1FF00A508CEC1FF0EB
:103CF000040E0AC005F0066A0510086E0650096E2B
:103D000008508CEC1FF0540E056E1C0EE82EFED7EA
:103D1000052EFCD700D00AC008F0096A08508CECC8
:103D20001FF01200000E2C1A000E2D1A000E2E1A73
:103D3000800E2F1A28C001F029C002F02AC003F01B
:103D40002BC004F02CC005F02DC006F02EC007F0EB
:103D50002FC008F0F7EC11F001C028F002C029F0E4
:103D600003C02AF004C02BF01200010E076E200ED3
:103D700001180210D8B414D0F70E036EFF0E046EB3
:103D800001C005F002C006F00350052604500622CB
:103D9000065004E1050E055CD8A002D0000E076EA7
:103DA00007C001F0026A1200000E106E000E0F6EC6
:103DB0000BD00EC001F0026A0CC003F00DC004F07D
:103DC000C7EC19F00F4A102A0F500A24D96E105070
:103DD0000B20DA6EDF500E6E0E50D8B41200E9D709
:103DE000000E286E000E296E400E2A6E410E2B6EBC
:103DF00034C02CF035C02DF036C02EF037C02FF077
:103E0000F0EC17F0D8B01200000E0001EF6F000EBA
:103E1000EE6F000E676E1200BF0E036EFF0E046E93
:103E200001C005F002C006F003500526045006222A
:103E3000065006E11A0E055CD8B002D0010E01D082
:103E4000000E016E026A1200D00E036EFF0E046EA9
:103E500001C005F002C006F00350052604500622FA
:103E6000065006E10A0E055CD8B002D0010E01D062
:103E7000000E016E026A12000150021003100410BD
:103E8000D8B408D0000E011A000E021A000E031A50
:103E9000800E041A01C001F002C002F003C003F05A
:103EA00004C004F0120001C003F002C004F002D00C
:103EB000014A022A01C0D9FF02C0DAFFDF50D8A4AC
:103EC000F7D70350015C016E04500258026E1200D5
:103ED00001500302F3CF05F0F4CF06F001500402C5
:103EE000F350062602500302F350062605C001F0E7
:103EF00006C002F0120001EE00F0600EEE6AE80665
:103F0000FDE100EEBAF0420EEE6AE806FDE1000EB9
:103F1000F86E00015FEF10F0046ECFEC1FF0000EA2
:103F2000036E700E026EC6EC1FF004C002F0036A4E
:103F3000C6EC1FF0CBEC1FF01200000E0F01496F12
:103F40000C0E666E0C0EBD6E7D0EBA6EA00EBB6EB4
:103F50001200C7B4FED7C5CF01F01F0E0116D8B4AA
:103F60001200F7D7000E6EEC1EF0010E6EEC1EF084
:103F70001200000E6EEC1EF00C0E6EEC1EF0120025
:103F8000800EC16E3E0EC06EC09E1200A9EC1FF0E6
:103F900002C0C9FF1200A9EC1FF0C5841200A9ECF1
:083FA0001FF0C58012001200A1
:020000040020DA
:08000000FFFFFFFFFFFFFFFF00
:020000040030CA
:0E000000FF18193CFFBF80FF0FC00FE00F403C
:00000001FF
